:020000020000FC
:0200000045C0F9
:10008C000FEF0DBF00E10EBF222404D015D040D0DD
:10009C005FD0FFCFA0E1B1E0C2E1D1E0E0E2F1E05E
:1000AC003D904990340C31923C904880341C3192F4
:1000BC0010F401E0008308953F924F921F920F922B
:1000CC002F92BF93AF93DF93CF93FF93EF931F9335
:1000DC002F93A0E3B1E0C2E3D1E0E0E4F1E03D9086
:1000EC004990341831923C9048803408319210F485
:1000FC0001E000832F911F91EF91FF91CF91DF9140
:10010C00AF91BF912F900F901F904F903F900895FB
:10011C002224C0E5D1E0E0E6F1E013E0A3E5B1E094
:10012C0023E03D904880349C31904190030C141C8A
:10013C0031904080321C421C4082329212920292C8
:10014C0031962A9571F7329721961A9539F70895B9
:10015C003F924F921F920F922F92BF93AF93DF93C8
:10016C00CF93FF93EF931F932F93B1E0A0E3D1E0D4
:10017C00C2E301E50D930DEF0C930FEF09930EE124
:10018C0008839ADFB1E0A0E1D1E0C2E1E0E4F1E064
:10019C0001910D9300810C930FEF09930FEF0883DE
:1001AC0079DFB1E0A0E5D1E0C3E5E0E2F1E0019157
:1001BC000D9301910D9300810C93E0E2F1E001911C
:1001CC0009930191099300810883A2DF2F911F915C
:1001DC00EF91FF91CF91DF91AF91BF912F900F9045
:1001EC001F904F903F9008953F924F921F920F9205
:1001FC002F92BF93AF93DF93CF93FF93EF931F9304
:10020C002F932224C2E0D1E0E4E0F1E012E0A0E080
:10021C00B1E022E03D904880349C31904190030C39
:10022C00141C3080321C30821292029231962A9524
:10023C0089F7319721961A9551F72F911F91EF91CC
:10024C00FF91CF91DF91AF91BF912F900F901F90A5
:0E025C004F903F900895089551FDFF1EFFFF43
:00000001FF
